{
  "contractName": "Payment",
  "abi": [
    {
      "anonymous": false,
      "inputs": [
        {
          "indexed": false,
          "internalType": "address",
          "name": "from",
          "type": "address"
        },
        {
          "indexed": false,
          "internalType": "address",
          "name": "to",
          "type": "address"
        },
        {
          "indexed": false,
          "internalType": "uint256",
          "name": "amount",
          "type": "uint256"
        },
        {
          "indexed": false,
          "internalType": "uint256",
          "name": "planId",
          "type": "uint256"
        },
        {
          "indexed": false,
          "internalType": "uint256",
          "name": "date",
          "type": "uint256"
        }
      ],
      "name": "PaymentSent",
      "type": "event"
    },
    {
      "anonymous": false,
      "inputs": [
        {
          "indexed": false,
          "internalType": "address",
          "name": "merchant",
          "type": "address"
        },
        {
          "indexed": false,
          "internalType": "uint256",
          "name": "planId",
          "type": "uint256"
        },
        {
          "indexed": false,
          "internalType": "uint256",
          "name": "date",
          "type": "uint256"
        }
      ],
      "name": "PlanCreated",
      "type": "event"
    },
    {
      "anonymous": false,
      "inputs": [
        {
          "indexed": false,
          "internalType": "address",
          "name": "subscriber",
          "type": "address"
        },
        {
          "indexed": false,
          "internalType": "uint256",
          "name": "planId",
          "type": "uint256"
        },
        {
          "indexed": false,
          "internalType": "uint256",
          "name": "date",
          "type": "uint256"
        }
      ],
      "name": "SubscriptionCancelled",
      "type": "event"
    },
    {
      "anonymous": false,
      "inputs": [
        {
          "indexed": false,
          "internalType": "address",
          "name": "subscriber",
          "type": "address"
        },
        {
          "indexed": false,
          "internalType": "uint256",
          "name": "planId",
          "type": "uint256"
        },
        {
          "indexed": false,
          "internalType": "uint256",
          "name": "date",
          "type": "uint256"
        }
      ],
      "name": "SubscriptionCreated",
      "type": "event"
    },
    {
      "inputs": [],
      "name": "nextPlanId",
      "outputs": [
        {
          "internalType": "uint256",
          "name": "",
          "type": "uint256"
        }
      ],
      "stateMutability": "view",
      "type": "function",
      "constant": true
    },
    {
      "inputs": [
        {
          "internalType": "uint256",
          "name": "",
          "type": "uint256"
        }
      ],
      "name": "plans",
      "outputs": [
        {
          "internalType": "address",
          "name": "merchant",
          "type": "address"
        },
        {
          "internalType": "address",
          "name": "token",
          "type": "address"
        },
        {
          "internalType": "uint256",
          "name": "amount",
          "type": "uint256"
        },
        {
          "internalType": "uint256",
          "name": "frequency",
          "type": "uint256"
        }
      ],
      "stateMutability": "view",
      "type": "function",
      "constant": true
    },
    {
      "inputs": [
        {
          "internalType": "address",
          "name": "",
          "type": "address"
        },
        {
          "internalType": "uint256",
          "name": "",
          "type": "uint256"
        }
      ],
      "name": "subscriptions",
      "outputs": [
        {
          "internalType": "address",
          "name": "subscriber",
          "type": "address"
        },
        {
          "internalType": "uint256",
          "name": "start",
          "type": "uint256"
        },
        {
          "internalType": "uint256",
          "name": "nextPayment",
          "type": "uint256"
        }
      ],
      "stateMutability": "view",
      "type": "function",
      "constant": true
    },
    {
      "inputs": [
        {
          "internalType": "address",
          "name": "token",
          "type": "address"
        },
        {
          "internalType": "uint256",
          "name": "amount",
          "type": "uint256"
        },
        {
          "internalType": "uint256",
          "name": "frequency",
          "type": "uint256"
        }
      ],
      "name": "createPlan",
      "outputs": [],
      "stateMutability": "nonpayable",
      "type": "function"
    },
    {
      "inputs": [
        {
          "internalType": "uint256",
          "name": "planId",
          "type": "uint256"
        }
      ],
      "name": "subscribe",
      "outputs": [],
      "stateMutability": "nonpayable",
      "type": "function"
    },
    {
      "inputs": [
        {
          "internalType": "uint256",
          "name": "planId",
          "type": "uint256"
        }
      ],
      "name": "cancel",
      "outputs": [],
      "stateMutability": "nonpayable",
      "type": "function"
    },
    {
      "inputs": [
        {
          "internalType": "address",
          "name": "subscriber",
          "type": "address"
        },
        {
          "internalType": "uint256",
          "name": "planId",
          "type": "uint256"
        }
      ],
      "name": "pay",
      "outputs": [],
      "stateMutability": "nonpayable",
      "type": "function"
    }
  ],
  "bytecode": "0x608060405234801561001057600080fd5b50611288806100206000396000f3fe608060405234801561001057600080fd5b506004361061007d5760003560e01c8063623da3d11161005b578063623da3d1146100d8578063b16206161461010a578063c40768761461013d578063e95fc90f146101595761007d565b80630f574ba71461008257806340e58ee51461009e5780635f8d26b2146100ba575b600080fd5b61009c60048036038101906100979190610ced565b610175565b005b6100b860048036038101906100b39190610ced565b6104a8565b005b6100c2610659565b6040516100cf9190610fd0565b60405180910390f35b6100f260048036038101906100ed9190610c2d565b61065f565b60405161010193929190610ed9565b60405180910390f35b610124600480360381019061011f9190610ced565b6106b6565b6040516101349493929190610e41565b60405180910390f35b61015760048036038101906101529190610c2d565b610726565b005b610173600480360381019061016e9190610c6d565b6109d6565b005b60006001600083815260200190815260200160002060010160009054906101000a900473ffffffffffffffffffffffffffffffffffffffff1690506000600160008481526020019081526020016000209050600073ffffffffffffffffffffffffffffffffffffffff168160000160009054906101000a900473ffffffffffffffffffffffffffffffffffffffff1673ffffffffffffffffffffffffffffffffffffffff16141561025b576040517f08c379a000000000000000000000000000000000000000000000000000000000815260040161025290610f50565b60405180910390fd5b8173ffffffffffffffffffffffffffffffffffffffff166323b872dd338360000160009054906101000a900473ffffffffffffffffffffffffffffffffffffffff1684600201546040518463ffffffff1660e01b81526004016102c093929190610e0a565b602060405180830381600087803b1580156102da57600080fd5b505af11580156102ee573d6000803e3d6000fd5b505050506040513d601f19601f820116820180604052508101906103129190610cc0565b507f577462848cc2ec95e5ef95bf0b154b97340221cd1002ea0511a3877a7f20fb8c338260000160009054906101000a900473ffffffffffffffffffffffffffffffffffffffff1683600201548642604051610372959493929190610e86565b60405180910390a160405180606001604052803373ffffffffffffffffffffffffffffffffffffffff1681526020014281526020018260030154426103b79190610ffc565b815250600260003373ffffffffffffffffffffffffffffffffffffffff1673ffffffffffffffffffffffffffffffffffffffff168152602001908152602001600020600085815260200190815260200160002060008201518160000160006101000a81548173ffffffffffffffffffffffffffffffffffffffff021916908373ffffffffffffffffffffffffffffffffffffffff16021790555060208201518160010155604082015181600201559050507feec977e786e7248a658b0474ccf8f57f37ead019014ec4d5ba1542ddabeff1b433844260405161049b93929190610ed9565b60405180910390a1505050565b6000600260003373ffffffffffffffffffffffffffffffffffffffff1673ffffffffffffffffffffffffffffffffffffffff16815260200190815260200160002060008381526020019081526020016000209050600073ffffffffffffffffffffffffffffffffffffffff168160000160009054906101000a900473ffffffffffffffffffffffffffffffffffffffff1673ffffffffffffffffffffffffffffffffffffffff161415610590576040517f08c379a000000000000000000000000000000000000000000000000000000000815260040161058790610f30565b60405180910390fd5b600260003373ffffffffffffffffffffffffffffffffffffffff1673ffffffffffffffffffffffffffffffffffffffff1681526020019081526020016000206000838152602001908152602001600020600080820160006101000a81549073ffffffffffffffffffffffffffffffffffffffff02191690556001820160009055600282016000905550507fde4047f3bd050ef9b8743c61b37fd72275056d1ccb33d1eb3f22c80cb14df28933834260405161064d93929190610ed9565b60405180910390a15050565b60005481565b6002602052816000526040600020602052806000526040600020600091509150508060000160009054906101000a900473ffffffffffffffffffffffffffffffffffffffff16908060010154908060020154905083565b60016020528060005260406000206000915090508060000160009054906101000a900473ffffffffffffffffffffffffffffffffffffffff16908060010160009054906101000a900473ffffffffffffffffffffffffffffffffffffffff16908060020154908060030154905084565b6000600260008473ffffffffffffffffffffffffffffffffffffffff1673ffffffffffffffffffffffffffffffffffffffff16815260200190815260200160002060008381526020019081526020016000209050600060016000848152602001908152602001600020905060008160010160009054906101000a900473ffffffffffffffffffffffffffffffffffffffff169050600073ffffffffffffffffffffffffffffffffffffffff168360000160009054906101000a900473ffffffffffffffffffffffffffffffffffffffff1673ffffffffffffffffffffffffffffffffffffffff16141561084e576040517f08c379a000000000000000000000000000000000000000000000000000000000815260040161084590610f30565b60405180910390fd5b82600201544211610894576040517f08c379a000000000000000000000000000000000000000000000000000000000815260040161088b90610f90565b60405180910390fd5b8073ffffffffffffffffffffffffffffffffffffffff166323b872dd868460000160009054906101000a900473ffffffffffffffffffffffffffffffffffffffff1685600201546040518463ffffffff1660e01b81526004016108f993929190610e0a565b602060405180830381600087803b15801561091357600080fd5b505af1158015610927573d6000803e3d6000fd5b505050506040513d601f19601f8201168201806040525081019061094b9190610cc0565b507f577462848cc2ec95e5ef95bf0b154b97340221cd1002ea0511a3877a7f20fb8c858360000160009054906101000a900473ffffffffffffffffffffffffffffffffffffffff16846002015487426040516109ab959493929190610e86565b60405180910390a1816003015483600201546109c79190610ffc565b83600201819055505050505050565b600073ffffffffffffffffffffffffffffffffffffffff168373ffffffffffffffffffffffffffffffffffffffff161415610a46576040517f08c379a0000000000000000000000000000000000000000000000000000000008152600401610a3d90610f70565b60405180910390fd5b60008211610a89576040517f08c379a0000000000000000000000000000000000000000000000000000000008152600401610a8090610f10565b60405180910390fd5b60008111610acc576040517f08c379a0000000000000000000000000000000000000000000000000000000008152600401610ac390610fb0565b60405180910390fd5b60405180608001604052803373ffffffffffffffffffffffffffffffffffffffff1681526020018473ffffffffffffffffffffffffffffffffffffffff16815260200183815260200182815250600160008054815260200190815260200160002060008201518160000160006101000a81548173ffffffffffffffffffffffffffffffffffffffff021916908373ffffffffffffffffffffffffffffffffffffffff16021790555060208201518160010160006101000a81548173ffffffffffffffffffffffffffffffffffffffff021916908373ffffffffffffffffffffffffffffffffffffffff1602179055506040820151816002015560608201518160030155905050600080815480929190610be49061109a565b9190505550505050565b600081359050610bfd8161120d565b92915050565b600081519050610c1281611224565b92915050565b600081359050610c278161123b565b92915050565b60008060408385031215610c4457610c43611112565b5b6000610c5285828601610bee565b9250506020610c6385828601610c18565b9150509250929050565b600080600060608486031215610c8657610c85611112565b5b6000610c9486828701610bee565b9350506020610ca586828701610c18565b9250506040610cb686828701610c18565b9150509250925092565b600060208284031215610cd657610cd5611112565b5b6000610ce484828501610c03565b91505092915050565b600060208284031215610d0357610d02611112565b5b6000610d1184828501610c18565b91505092915050565b610d2381611052565b82525050565b6000610d36601683610feb565b9150610d4182611117565b602082019050919050565b6000610d59602083610feb565b9150610d6482611140565b602082019050919050565b6000610d7c601883610feb565b9150610d8782611169565b602082019050919050565b6000610d9f601e83610feb565b9150610daa82611192565b602082019050919050565b6000610dc2600b83610feb565b9150610dcd826111bb565b602082019050919050565b6000610de5601983610feb565b9150610df0826111e4565b602082019050919050565b610e0481611090565b82525050565b6000606082019050610e1f6000830186610d1a565b610e2c6020830185610d1a565b610e396040830184610dfb565b949350505050565b6000608082019050610e566000830187610d1a565b610e636020830186610d1a565b610e706040830185610dfb565b610e7d6060830184610dfb565b95945050505050565b600060a082019050610e9b6000830188610d1a565b610ea86020830187610d1a565b610eb56040830186610dfb565b610ec26060830185610dfb565b610ecf6080830184610dfb565b9695505050505050565b6000606082019050610eee6000830186610d1a565b610efb6020830185610dfb565b610f086040830184610dfb565b949350505050565b60006020820190508181036000830152610f2981610d29565b9050919050565b60006020820190508181036000830152610f4981610d4c565b9050919050565b60006020820190508181036000830152610f6981610d6f565b9050919050565b60006020820190508181036000830152610f8981610d92565b9050919050565b60006020820190508181036000830152610fa981610db5565b9050919050565b60006020820190508181036000830152610fc981610dd8565b9050919050565b6000602082019050610fe56000830184610dfb565b92915050565b600082825260208201905092915050565b600061100782611090565b915061101283611090565b9250827fffffffffffffffffffffffffffffffffffffffffffffffffffffffffffffffff03821115611047576110466110e3565b5b828201905092915050565b600061105d82611070565b9050919050565b60008115159050919050565b600073ffffffffffffffffffffffffffffffffffffffff82169050919050565b6000819050919050565b60006110a582611090565b91507fffffffffffffffffffffffffffffffffffffffffffffffffffffffffffffffff8214156110d8576110d76110e3565b5b600182019050919050565b7f4e487b7100000000000000000000000000000000000000000000000000000000600052601160045260246000fd5b600080fd5b7f616d6f756e74206e6565647320746f206265203e203000000000000000000000600082015250565b7f7468697320737562736372697074696f6e20646f6573206e6f74206578697374600082015250565b7f7468697320706c616e20646f6573206e6f742065786973740000000000000000600082015250565b7f616464726573732063616e6e6f74206265206e756c6c20616464726573730000600082015250565b7f6e6f742064756520796574000000000000000000000000000000000000000000600082015250565b7f6672657175656e6379206e6565647320746f206265203e203000000000000000600082015250565b61121681611052565b811461122157600080fd5b50565b61122d81611064565b811461123857600080fd5b50565b61124481611090565b811461124f57600080fd5b5056fea264697066735822122056d8082728d85062b6c99d6b711233ccffdfe59770ee2a321d9d247c8244434564736f6c63430008060033",
  "immutableReferences": {},
  "source": "pragma solidity ^0.8.6;\n\nimport '@openzeppelin/contracts/token/ERC20/IERC20.sol';\n\ncontract Payment {\n\n  uint public nextPlanId;\n\n  struct Plan {\n    address merchant;\n    address token;\n    uint amount;\n    uint frequency;\n  }\n  struct Subscription {\n    address subscriber;\n    uint start;\n    uint nextPayment;\n  }\n  mapping(uint => Plan) public plans;\n  mapping(address => mapping(uint => Subscription)) public subscriptions;\n\n  event PlanCreated(\n    address merchant,\n    uint planId,\n    uint date\n  );\n  event SubscriptionCreated(\n    address subscriber,\n    uint planId,\n    uint date\n  );\n  event SubscriptionCancelled(\n    address subscriber,\n    uint planId,\n    uint date\n  );\n  event PaymentSent(\n    address from,\n    address to,\n    uint amount,\n    uint planId,\n    uint date\n  );\n\n  function createPlan(address token, uint amount, uint frequency) external {\n    require(token != address(0), 'address cannot be null address');\n    require(amount > 0, 'amount needs to be > 0');\n    require(frequency > 0, 'frequency needs to be > 0');\n    plans[nextPlanId] = Plan(\n      msg.sender, \n      token,\n      amount, \n      frequency\n    );\n    nextPlanId++;\n  }\n\n  function subscribe(uint planId) external {\n    // pointer to plans token\n    IERC20 token = IERC20(plans[planId].token);\n    // pointer to plan\n    Plan storage plan = plans[planId];\n    require(plan.merchant != address(0), 'this plan does not exist');\n\n    // transfer coin from buyer to merchant\n    token.transferFrom(msg.sender, plan.merchant, plan.amount);  \n    emit PaymentSent(\n      msg.sender, \n      plan.merchant, \n      plan.amount, \n      planId, \n      block.timestamp\n    );\n\n    subscriptions[msg.sender][planId] = Subscription(\n      msg.sender, \n      block.timestamp, \n      block.timestamp + plan.frequency\n    );\n    emit SubscriptionCreated(msg.sender, planId, block.timestamp);\n  }\n\n  function cancel(uint planId) external {\n    Subscription storage subscription = subscriptions[msg.sender][planId];\n    require(\n      subscription.subscriber != address(0), \n      'this subscription does not exist'\n    );\n    delete subscriptions[msg.sender][planId]; \n    emit SubscriptionCancelled(msg.sender, planId, block.timestamp);\n  }\n\n  function pay(address subscriber, uint planId) external {\n    Subscription storage subscription = subscriptions[subscriber][planId];\n    Plan storage plan = plans[planId];\n    IERC20 token = IERC20(plan.token);\n    require(\n      subscription.subscriber != address(0), \n      'this subscription does not exist'\n    );\n    require(\n      block.timestamp > subscription.nextPayment,\n      'not due yet'\n    );\n\n    token.transferFrom(subscriber, plan.merchant, plan.amount);  \n    emit PaymentSent(\n      subscriber,\n      plan.merchant, \n      plan.amount, \n      planId, \n      block.timestamp\n    );\n    subscription.nextPayment = subscription.nextPayment + plan.frequency;\n  }\n}",
  "sourcePath": "/home/zoe/crypto-sub/contracts/Payment.sol",
  "compiler": {
    "name": "solc",
    "version": "0.8.6+commit.11564f7e.Emscripten.clang"
  },
  "schemaVersion": "3.4.2",
  "updatedAt": "2021-09-22T17:06:40.664Z",
  "networkType": "ethereum",
  "devdoc": {
    "kind": "dev",
    "methods": {},
    "version": 1
  },
  "userdoc": {
    "kind": "user",
    "methods": {},
    "version": 1
  }
}